:02000004080AE8
:1000000000000A0868320A08000006000600050120
:080010000402E80500000000F5
:04001800202E0A0884
:1000200009480A4908B5884205D0094A824202D0E7
:10003000121A02F0B1FE0748074A0021121A02F014
:10004000B6FE064808BD00BF00000020D4310A08F3
:100050006C00002070000020580200205802002090
:1000600070B501F08FF9074B074C1E46E41AA4083F
:100070000025A54204D056F8253098470135F8E709
:1000800070BD00BF94310A08D0310A0800F038BAB8
:1000900008B500F0F1FABDE8084001F035B900F00C
:1000A00023BF00F021BF00F027BF0078B0FA80F036
:1000B00040097047012303707047704710B504462C
:1000C000102101F03FFD204610BD2DE9F34105460A
:1000D000287901F0BDFC0028FAD10DF106040DF1DC
:1000E0000308012707260121687901F098FC287987
:1000F00001F0AEFC07FA06F3227808B1134301E0E1
:1001000022EA030300216879237001F088FC16F1CC
:10011000FF36E8D2013CA045E4D16879012101F025
:100120007EFC6879002101F07AFC9DF805309DF88D
:1001300006001B0243EA00439DF80400184302B086
:10014000BDE8F081F8B5002406460F462546BC42BE
:1001500005D03046FFF7B9FF01340544F7E795FBBA
:10016000F4F0F8BD10B50446114B42710360017103
:100170001046012101F042FC2079002101F03EFCF3
:100180000121607901F04BFC642000F03FFD6079B3
:10019000002101F044FC19212046FFF7D3FF19216B
:1001A0002046FFF7CFFF034BA060E360204610BD61
:1001B0003C2E0A0800C0F844C160704710B50446E0
:1001C0001921FFF7BFFFA368C01A02F033FCE168F2
:1001D00002F038FD10BD00F0D9BC002000217047AE
:1001E00070477047D0B5044616461F46DDE9042324
:1001F000C0E908230368D968D0E90A23884723683F
:100200003246196A20463B46BDE8D040084713B540
:1002100004990446002901DDC0E91223DDE9060145
:10022000CDE900012046FFF7DDFFD4E9120102B05D
:1002300010BD2DE9F047194682461046CAE90A0169
:1002400001F094FEDAE9086732463B46804689466B
:1002500001F08CFE02460B4604460D4600204FF08E
:10026000804102F05FF93246CAE90C013B46404644
:10027000494601F079FE22462B4602F053F9CAE9BD
:100280000E01BDE8F08700F14801D1E90001704797
:100290002DE9F0479046D0E91245D0E9026799462A
:1002A000824622462B464046494601F05DFEDAE989
:1002B0000C2302F00DF832463B4601F0BBFDDAE9B3
:1002C000042301F09BFDDAE90E67CAE9100132460A
:1002D0003B4600200C4901F047FE42464B4601F0E8
:1002E000F7FF3246804689463B462046294601F0C4
:1002F000EFFF02460B464046494601F037FECAE989
:100300001201BDE8F08700BF0000F03F10B5029970
:100310000446002901DDC0E912232046FFF7B8FF9B
:10032000D4E9120110BD10B50446502101F00AFCB9
:10033000204610BD38B50446501E0D4601F062FF40
:10034000094B002201F05AFD02F072FA2060FFF71B
:10035000A8FE002360602268934203DA6268D554E5
:100360000133F8E7204638BD0000F03FF0B590E8D3
:1003700028002C46EA1812F8016C0022671BBB42C9
:1003800005DD14F8017B8F4218BF0122F6E7013B1F
:10039000002B446804DDE51815F8015CE554F6E728
:1003A0002170002A14BF30460846F0BD0022002309
:1003B000C0E900237047F8B50546084601F022FF62
:1003C000D5E9002306460F464FF0010402F010FA6B
:1003D00008B94FF00004C5E9006704F00100F8BD5A
:1003E0002DE9F047DDE90A67904699460025044665
:1003F00032463B4605608A464046494602F092F83E
:1004000001F05EFD00221D4B01F0B0FD0022002333
:1004100001F0F4FC02F00CFA324660603B46DDE984
:10042000080102F07FF80022144B01F09FFD01F05B
:1004300047FD0022002301F0E1FC02F0F9F9C4E9D4
:100440000467A060002200234046494602F0A8F954
:1004500000B1656000220023DDE9080102F0A0F987
:1004600008B10023A360BAF1000F01D0A36801E036
:1004700063685B4223602046BDE8F0870000F03FE0
:100480000368002B05DB59B9013B0360013309D137
:1004900000E011B943685B4203E0013303600BB92C
:1004A0008368036003680020002BB4BF002101496A
:1004B000704700BF0000F03F2DE9D043DDE90A6737
:1004C000DDE906890446C0E908230A4BC0E9026752
:1004D000DDE90867C0E9046700260027C0E9066770
:1004E000C0E90A89036042464B46FFF7A2FE204658
:1004F000BDE8D0834C2E0A0800F048BB0000000085
:1005000030B5514987B05148FFF756FE01F02CF83D
:100510004FF4165101F01CF80021022001F06EFA90
:100520001020FFF7BCFD054620B1022310223F2119
:1005300000F02AFA464C2846256000F022FB20688D
:1005400000F043FA206800F07EFA0022114620688D
:1005500000F08EFA3F49206800F040FD012220683B
:10056000002100F085FA3C49206800F037FD50205A
:10057000FFF795FD044698B12DA3D3E90023CDE9FB
:1005800004232DA3D3E90023CDE9022300224FF059
:100590008043CDE900232AA3D3E90023FFF78CFF92
:1005A0002E4B08201C60FFF77AFD044618B102228A
:1005B0000021FFF7BFFE2A4B08201C60FFF76FFDEC
:1005C000044608B1FFF7F2FE264B18201C60FFF727
:1005D00066FD044660B1244B0022CDE902230022CF
:1005E0000023CDE9002300210022204BFFF7F8FE75
:1005F0001F4B18201C60FFF752FD044660B11A4BD8
:100600000022CDE9022300220023CDE900230021AE
:100610000022164BFFF7E4FE164B4FF47A701C6075
:1006200007B0BDE8304000F01DBE00BFAFF3008052
:1006300000000000002BE64000000000002BE6C098
:10064000B81E85EB51B88E3F33B35643900000205F
:10065000CC000020742E0A08842E0A088000002096
:10066000D4000020B000002000000440000014402E
:10067000B4000020D00000202DE9F04F8BB000F036
:10068000CDFA04469648FFF799FD01F0CDFD954D52
:1006900080462B688946DA0710D42846FFF705FD07
:1006A00060B1914B4046D3E90023494601F05CFC20
:1006B0008E4BC3E900012846FFF7FCFC8C4D2B68EC
:1006C000DB0715D42846FFF7F0FC88B182A3D3E9F5
:1006D00000238649D1E9000101F024FF854B002267
:1006E00001F0F6FD844BC3E900012846FFF7E2FC68
:1006F000824B1A6802B91C60814E3068201A0E289D
:1007000040F2968002F092F901F08EFD00227D4BBE
:1007100001F008FF7C4D7D4BC5E9000118680121FF
:100720003460FFF7ADFE0022002302F039F8784E66
:100730004FF0010A374608B14FF0000A754B02200E
:1007400086F800A01E6801F083F9011C18BF012182
:100750003046FFF70BFE704B01461868FFF72BFE83
:100760006E4B01461868FFF78BFE002200236C4E8B
:100770004FF0010B02F014F808B14FF0000B694B79
:1007800086F800B01868D5E900230168CDE9022396
:10079000654E42463368544D0093C9694B468847BD
:1007A00082468B46614BC3E900ABD5E9002301F0DB
:1007B000DBFB4E4BC3E9000147A3D3E9002301F063
:1007C000B1FE4C4B002201F083FD4B4BC3E900010D
:1007D000534B1B780BB93B7813BBC5E900AB00F05A
:1007E000C3FED5E900230021CDE90023504D514A35
:1007F00000F0E5FC00221146286800F039F94E4966
:10080000286800F0EBFB01220021286800F030F995
:100810004949286800F0E2FB4FF4C87000F022FD5F
:100820003368414A23B1022BCCBF0023013313604C
:1008300040F2DB51414A1368E31A8B4246D91460F7
:1008400000F092FE304B2C4DD3E90023CDE9082374
:10085000264FD5E90023CDE90623D7E90023CDE9CA
:100860000423324B324CD3E900230021CDE902238B
:10087000CDE90089324A00F0A2FC0022114620682E
:1008800000F0F6F82F49206800F0A8FB01220021B3
:10089000206800F0EDF82C49206800F09FFB02264C
:1008A00008210022206800F0E3F80096D7E9002331
:1008B000206800F07FFC01222068082100F0D8F8B1
:1008C0000096D5E90023206800F074FC0BB0BDE869
:1008D000F08F00BFAFF300800000000000607C409C
:1008E00090000020C0000020A80000208800002008
:1008F000C400002000003040B8000020DC000020D0
:10090000E000002000408F40A0000020D000002028
:10091000D8000020D4000020B0000020B400002047
:1009200074000020800000200000002078000020DB
:10093000CC000020952E0A08AB2E0A08C800002023
:10094000BA2E0A08742E0A08842E0A0810B5074C1D
:1009500000F01CF90D220C212046FFF703FC204675
:10096000BDE81040024A034901F0DEB890000020C3
:1009700070000020BB000A08704710B50446102123
:1009800001F0E0F8204610BD70B5044E002545602A
:100990000660017242738373C57370BDEC2E0A0842
:1009A00038B504460D4601F099F8217A00F010FFA1
:1009B00001F094F8E17B036829439B68984701F0B4
:1009C0008DF8BDE8384000F00BBF0823C373002149
:1009D000FFF7E6BF38B505460C4641F00401FFF7C6
:1009E000DFFF012000F012F9284604F0FB01FFF7B9
:1009F000D7FFBDE83840322000F008B938B50446CA
:100A00000D46FFF7CDFF29462046BDE83840FFF7E9
:100A1000E1BF70B50D461446064621F00F011143A3
:100A2000FFF7ECFF44EA05113046BDE87040C9B25B
:100A3000FFF7E4BF08B50122FFF7EBFF002008BD78
:100A40000022FFF7E6BF08B50121FFF7F9FFBDE877
:100A500008404FF4FA6000F0D9B808B50221FFF75A
:100A6000EFFFBDE808404FF4FA6000F0CFB8000097
:100A70007FB5054614460E460C4B0DF1100E0FCBFC
:100A80000EE90F002B7B2846A3423CBF03F1FF3445
:100A9000E4B204AB03EB840454F8101C314461F05D
:100AA0007F01C9B2FFF7CCFF04B070BDFC2E0A086D
:100AB00008B5817A41F00402827241F00C01FFF71F
:100AC000BFFF08BD10B5012A88BF417A044684BF24
:100AD00041F00801417202732BB1012A02BF437A2F
:100AE00043F004034372322000F0BCFBE17B20465C
:100AF000FFF756FF4FF47A7000F0B4FB3021204628
:100B0000FFF77CFF41F2941000F080F8302120467E
:100B1000FFF774FF41F2941000F078F8302120467E
:100B2000FFF76CFF962000F071F820462021FFF7B8
:100B300065FF617A204641F02001FFF781FF042321
:100B4000A3722046FFF7B4FF2046FFF77CFF022385
:100B50002046E3720621FFF773FF2046BDE81040F0
:100B6000FFF77BBF10B5044600F0B8FF00F02AFE87
:100B700000236372A27B617B2046BDE81040FFF733
:100B8000A1BFFFF7EFBF00F001B8000008B5024BAE
:100B90001B681B68019308BDB001060808B5024B2D
:100BA0001B689B68019308BDB001060808B5024B9D
:100BB0001B68DB68019308BDB001060808B5024B4D
:100BC0001B681B69019308BDB001060808B5024BFC
:100BD0001B685B69019308BDB001060808B5024BAC
:100BE0001B68DB69019308BDB401060808B5024B18
:100BF0001B681B6A019308BDB401060808B5024BC7
:100C00001B685B68019308BD9C01060808B5024B90
:100C10001B68DB68019308BD9C01060808B5024B00
:100C20001B685B69019308BD9C01060808B5024B6F
:100C30001B685B6C019308BDD001060808B5024B28
:100C40001B689B6C019308BDD001060808B5024BD8
:100C50001B689B69019308BDC401060808B5024BD7
:100C60001B685B6A019308BDC401060808B5024B06
:100C70001B689B6A019308BDC401060808B5024BB6
:100C80001B68DB6A019308BDC401060808B5024B66
:100C90001B681B6B019308BDC401060808B5024B15
:100CA0001B685B6B019308BDC401060808B5024BC5
:100CB0001B689B6B019308BDC401060808B5024B75
:100CC0001B681B6C019308BDC401060808B5024BE4
:100CD0001B68DB6C019308BDAC01060808B5024B2C
:100CE0001B689B6D019308BDAC01060808B5024B5B
:100CF0001B68DB6D019308BDAC01060808B5024B0B
:100D00001B681B6E019308BDAC01060808B5024BB9
:100D10001B685B6E019308BDAC01060808B5024B69
:100D20001B689B6E019308BDAC01060808B5024B19
:100D30001B68DB6E019308BDAC01060808B5024BC9
:100D40001B681B6F019308BDAC01060808B5024B78
:100D50001B685B6F019308BDAC01060808B5034B27
:100D60001B68D3F88030019308BD0000AC01060871
:100D700008B5024B1B681B68019308BDD801060823
:100D800008B5024B1B685B68019308BDD8010608D3
:100D900008B5024B1B681B69019308BDD801060802
:100DA00008B5024B1B685B69019308BDD8010608B2
:100DB00008B5024B1B689B69019308BDD801060862
:100DC00008B5024B1B68DB69019308BDD801060812
:100DD00008B5024B1B681B6A019308BDD8010608C1
:100DE00008B5024B1B689B6C019308BDC001060847
:100DF00008B5024B1B685B68019308BDA401060897
:100E000008B5024B1B685B69019308BDA401060885
:100E100008B5034B1B68D3F89030019308BD000060
:100E2000A401060808B5034B1B68D3F89C30019356
:100E300008BD0000A401060808B5024B1B685B68EA
:100E4000019308BDC801060808B5024B1B689B68E2
:100E5000019308BDC801060808B5024B1B68DB6892
:100E6000019308BDC801060808B5024B1B681B6941
:100E7000019308BDC801060808B5024B1B685B69F1
:100E8000019308BDC801060808B5024B1B689B69A1
:100E9000019308BDC801060808B5024B1B68DB6951
:100EA000019308BDC801060808B5024B1B681B6A00
:100EB000019308BDC801060808B5024B1B681B6BEF
:100EC000019308BDC801060808B5024B1B685B6B9F
:100ED000019308BDC801060808B5024B1B68DB6B0F
:100EE000019308BDCC01060808B5024B1B681B68BE
:100EF000019308BDA001060808B5024B1B685B689A
:100F0000019308BDA001060808B5024B1B685B6A87
:100F1000019308BDA001060870B504460E460025E1
:100F200040F8085FFFF782FE30462670FFF756FE56
:100F30006560204670BD0078FFF758BE10B50446C6
:100F4000006818B1FFF7D8FF0023236010BD10B56B
:100F50000446FFF7F3FF204610BD00004FF6FF7375
:100F600010B5084C00202060A080A0712081638112
:100F7000FFF73EFF2046BDE81040034A034900F05A
:100F8000D3BD00BFE4000020700000204F0F0A080E
:100F9000F8B506460D468F180024BD420CD03368C4
:100FA00015F8011B9B6830469847002801DB044474
:100FB000F3E7002C08BF04462046F8BD70B505468F
:100FC0000C46084649B101F023FF2B680246214632
:100FD0002846BDE87040DB68184770BD08B5FFF7CC
:100FE000EDFF08BD03689B68184738B50D2105461D
:100FF000FFF7F8FF0A2104462846FFF7F3FF2044D5
:1010000038BD012A98BF0A2230B50B468BB00021AB
:101010008DF824100DF12304B3FBF2F505FB123318
:10102000DBB2092B94BF30333733DBB2214604F8EF
:1010300001392B46002DEFD1FFF7C0FF0BB030BDBB
:101040002DE9F04719468046104617461E469DF882
:10105000205001F0D7FB08B14D4912E026F00044C2
:101060004FF0FF324B4B3846214601F0CBFB68B9BD
:101070004FF0FF32474B3846214601F0A5FB28B917
:1010800045494046FFF79AFFBDE8F0874FF06042C0
:10109000424B3846314601F0ABFB08B14049F0E71E
:1010A0004FF060423F4B3846314601F083FB002849
:1010B000F4D1002200233846314601F07BFB38B1E1
:1010C0002D214046FFF78EFF06F10046044600E062
:1010D000044635494FF0000900205FFA89F39D422C
:1010E00006D90022314B01F01DFA09F10109F4E79C
:1010F0003A46334600F03AFF0F46064601F0C0FB81
:101100000A22014681464046FFF77BFF0444E5B3CF
:10111000484601F067F802460B463046394600F073
:1011200023FF06460F4640462149FFF747FF044488
:1011300000221E4B3046394601F0CAF806460F46DB
:1011400001F076FBB0F1000A07DA2D214046FFF7E7
:1011500049FFCAF10001814602E051464FF0000903
:101160000A224046FFF74DFF48440444504601F030
:1011700049F802460B463046394600F0F5FE013D7F
:1011800015F0FF0506460F46D2D12046BDE8F08790
:101190000C2F0A08FFFFEF7F162F0A08FFFFEF4111
:1011A000102F0A08FFFFEFC10000E03F00002440BD
:1011B000142F0A089DF800100091FFF741BF0CB4EE
:1011C0002DE9F04387B000AF07F1380454F8049BD1
:1011D00005460E4623464A461421381D3C60FFF75B
:1011E00093FE132805D8391D2846FFF7E7FE04466D
:1011F00013E000F1080323F00703E846ADEB030D0D
:10120000411C23464A4668463C60FFF77DFE69461E
:101210002846FFF7D3FE0446C5461EB12846FFF711
:10122000E4FE044420461C37BD46BDE8F04302B04E
:10123000704700231A4619464068FFF71DBE00009C
:10124000014A024B1A607047902F0A08F0000020F4
:10125000024B1A68024B1A60704700BF040000205E
:10126000F40000200021FFF7CBBD10B583680446D1
:1012700013B1032201469847204610BD10B504461D
:10128000FFF7F3FF204610BD034800238360034AA5
:10129000034900F049BC00BFF800002070000020A6
:1012A0007D120A0808B5144B33B100F05DF90368EC
:1012B0001B699847002816DC104B33B100F004FA84
:1012C00003681B699847002810DC0D4B0BB1AFF386
:1012D00000800C4B7BB100F075F903681B699847DF
:1012E000002806DC08BDAFF30080E5E7AFF300801F
:1012F000EBE7AFF3008008BD000000000000000035
:10130000000000000000000008B5FFF7CBFFFFF76A
:1013100085FC014B186008BD800100200248034A8B
:101320000349121A01F038BD004002400440024057
:10133000D0310A0807B5002300931A466FF07701F1
:10134000FFF770FD03B05DF804FB000007B54388AC
:101350000A2B08D0502B09D1094B1B683BB103B0B5
:101360005DF804EB1847FFF7E5FF06E00023009364
:101370001A466FF07701FFF755FD03B05DF804FBE7
:101380000801002038B5104C104D2368AB42104BBB
:101390000CBF012200221A7002D0FFF7BFFF2560A8
:1013A000FFF72CFC044601F00BFD0A4B13B120465D
:1013B000AFF3008000210748FFF78EFDBDE83840FD
:1013C00000210548FFF724BD004002401E1C279A5B
:1013D0000C010020000000004D130A08704710B5F2
:1013E0000446182100F0AEFB204610BDF8B50F46AC
:1013F00000F10806051D002416F8011D0A223846D2
:10140000FFF7FFFDAE42044407D0002CF4D02E219C
:101410003846FFF7E7FD0444EEE72046F8BD00003C
:1014200010B50446044B112240F8043B002101F0A2
:10143000BEFC204610BD00BF30300A080346074AF4
:1014400010B543F8042B01F1100251F8044B9142FE
:1014500043F8044BF9D10A781A7010BD30300A08ED
:10146000024A4160026004220275704730300A0867
:1014700010B59DF8084044EA032343EA024242EAD9
:10148000016104234160037510BD000037B5044DB0
:1014900005609DF818500095FFF7EAFF03B030BDD6
:1014A00030300A0841747047704708B50021007C4D
:1014B000FFF77EFC30EA200028BF4FF0FF3008BD68
:1014C00008B50121007CFFF773FC30EA200028BF3B
:1014D0004FF0FF3008BD08B5007CFFF761FC20EA43
:1014E000E07008BD08B5007CFFF752FC20EAE07010
:1014F00008BD007CFFF76CBC10B50446142100F059
:1015000021FB204610BD38B50446007C0D46FFF790
:1015100047FC002801DC607C28B12946207CFFF7CD
:101520004FFC20EAE07038BD10B50446002363602C
:101530004FF47A73A360054B08462360012321749E
:1015400063741146FFF714FC204610BD44300A08AE
:101550000022007CFFF714BC10B5044614220021C1
:1015600001F025FC204610BD30B50E4D87B001A816
:10157000FFF7F2FF296811F0010410D12846FEF7A9
:1015800094FD60B101AA21460748FFF7CDFF284628
:10159000FEF790FD054A0649034800F0C5FA0248E7
:1015A00007B030BD1001002018010020700000209D
:1015B000A9140A0810B504461422002101F0F7FB13
:1015C000204610BD10B50E4C86B001A8FFF7F2FF03
:1015D0002368DB0710D42046FEF767FD60B101AA3F
:1015E00001210848FFF7A0FF2046FEF763FD064AE9
:1015F0000649044800F098FA024806B010BD00BF42
:10160000140100202C01002070000020A9140A08F9
:1016100070474174704708B5007CFFF74FFB20EA24
:10162000E07008BD08B5007CFFF720FB20EAE07001
:1016300008BD08B5007CFFF729FB30EA200028BF71
:101640004FF0FF3008BD08B5007CFFF717FB30EA0C
:10165000200028BF4FF0FF3008BD007CFFF71EBB05
:1016600010B50446142100F06DFA204610BD70B587
:10167000457C04460E4625B9007CFFF71FFB002879
:1016800005DD3146207CBDE87040FFF7E7BA28460B
:1016900070BD000010B50446084611460022626085
:1016A0004FF47A72A260054A2074226001226274AB
:1016B0001A46FFF7CBFA204610BD00BF74300A0867
:1016C000007CFFF7F3BA0000F8B5194C25684DB956
:1016D0008420FEF7E4FC064618B18422294601F076
:1016E00066FB2660134D2E684EB98420FEF7D7FCAA
:1016F000074618B18422314601F059FB2F600E4F86
:10170000396811F0010611D13846FEF7CEFC68B1F8
:10171000226831462B680948FFF7BCFF3846FEF7C0
:10172000C9FC074A0749054800F0FEF90348F8BD1F
:101730005C010020540100205801002040010020DD
:101740007000002011160A087047F8B506461546C5
:101750000C468F18BC4206D0336814F8011B9B68F6
:1017600030469847F6E72846F8BD0022007CFFF790
:10177000C5BA0021007CFFF7C9BA0021007CFFF741
:10178000CDBA0021007CFFF7D1BA0021007CFFF721
:10179000D5BA10B50446142100F0D4F9204610BD86
:1017A00010B50446002363604FF47A73A360044BC2
:1017B0002174084623601146FFF7D0FA204610BD79
:1017C000A4300A0800231A461946007CFFF77EBAA7
:1017D0000022007CFFF782BA0022007CFFF786BA65
:1017E0000121FFF7F9BF0021007CFFF7AFBA00220B
:1017F00011464068FFF738BBF0B5164689B0112294
:101800000F460446002103A801F0D1FA304601F04A
:10181000FFFA0025009581B27B6803AA3046FFF7E6
:10182000DFFA20B129462046FFF71AFE03E003A99C
:101830002046FFF703FE204609B0F0BD0022114606
:101840004068FFF731BB002211464068FFF73CBB00
:1018500000224068FFF730BB002281F001014068A0
:10186000FFF71ABB00231A4619464068FFF70CBB66
:10187000002211464068FFF7E7BA002202214068C3
:10188000FFF7EABA00231A464068FFF7D5BA00000E
:10189000024B04225A60024A1A607047600100201D
:1018A000CC300A0800231A464068FFF7C5BA002268
:1018B00002214068FFF7D0BA002211464068FFF7C6
:1018C000C3BA002211464068FFF7CEBA00231A4679
:1018D00019464068FFF7D0BA00231A4619464068F7
:1018E000FFF7D2BA002281F001014068FFF7D4BAB5
:1018F00000224068FFF7E0BA002211464068FFF777
:10190000E3BA002211464068FFF7CEBA70B516461A
:101910008EB0044608A8FFF783FD1122002103A81A
:1019200001F045FA304601F073FA00250A4B0095A4
:1019300081B25B6803AA3046FFF752FA20B129460C
:101940002046FFF78DFD03E003A92046FFF776FD53
:1019500020460EB070BD00BF60010020024B034A5C
:101960001A6000225A6070476801002000310A089E
:1019700010B50446806808B1FFF760F9204610BD35
:1019800070B51A4E0446316811F001050FD130468A
:10199000FEF78BFB58B129461548FFF7BDFA3046D4
:1019A000FEF788FB134A1449114800F0BDF81048AF
:1019B000FFF7C1FA28B1A4F10D03022B01D80020D2
:1019C00070BD00F08BF8FFF70EFF08B1012CF6D9BF
:1019D000FFF77AFEFFF774FE18B1A4F11203012B92
:1019E000EDD9172C8CBF0020012070BD70010020A4
:1019F000740100207000002071190A08172838B5FA
:101A000004460D460AD8FF2908D0FFF7B9FF28B1D0
:101A100029462046BDE83840FFF7C0B838BD38B584
:101A200004460D46FFF7C2F8FF2810D0062804D858
:101A30004D2323FA00F0C30709D42046FFF7A0FF87
:101A400028B129462046BDE83840FFF7B7B838BD71
:101A500010B50446FFF7AAF80438C0B2012808D927
:101A60002046FFF78DFF20B12046BDE81040FFF76C
:101A7000ADB8002010BD000013B5084C00231A4675
:101A8000194600932046FFF701FD2046044A054908
:101A900002B0BDE8104000F047B800BF840100204C
:101AA00070000020DD130A0870B5044614252A468C
:101AB000094E002101F07BF9258020253146A560E3
:101AC0002561284600F040F831466060284600F065
:101AD0003BF8E060204670BD2C310A0830B50E4D51
:101AE00087B0296811F0010413D12846FEF7DDFA0A
:101AF00078B101A8FFF7D8FF01AA21460748FFF7F0
:101B00004FFE2846FEF7D6FA054A0649034800F07C
:101B10000BF8024807B030BD9C010020A001002056
:101B20007000002049170A080B460146184601F0CC
:101B300025B90000024B1868BFF35F8F704700BFE4
:101B4000B4010020FEF7AFBA00F000B810B50028CD
:101B500014BF044601242046FFF7C6F920B9FFF759
:101B6000E9FF08B18047F6E710BD0000184B1A687E
:101B7000D1075CBF01221A60164B1A68D2075CBFFE
:101B800001221A60144B1A68D0075CBF01221A6048
:101B9000124B1A68D1075CBF01221A60104B1A68F9
:101BA000D2075CBF01221A600E4B1A68D0075CBFD7
:101BB00001221A600C4B1A68D1075CBF01221A601F
:101BC0000A4B1A68D2075CBF01221A60704700BF37
:101BD000D4010020D0010020CC010020C801002049
:101BE000C4010020C0010020BC010020B801002079
:101BF000244B1A68D0075CBF01221A60224B1A6876
:101C0000D1075CBF01221A60204B1A68D2075CBF63
:101C100001221A601E4B1A68D0075CBF01221A60AD
:101C20001C4B1A68D1075CBF01221A601A4B1A6854
:101C3000D2075CBF01221A60184B1A68D0075CBF3C
:101C400001221A60164B1A68D1075CBF01221A6084
:101C5000144B1A68D2075CBF01221A60124B1A6833
:101C6000D0075CBF01221A60104B1A68D1075CBF15
:101C700001221A600E4B1A68D2075CBF01221A605B
:101C8000704700BF0402002000020020FC01002079
:101C9000F8010020F4010020F0010020EC010020F8
:101CA000E8010020E4010020E0010020DC01002028
:101CB000D8010020244B1A68D0075CBF01221A60AB
:101CC000224B1A68D1075CBF01221A60204B1A68A8
:101CD000D2075CBF01221A601E4B1A68D0075CBF96
:101CE00001221A601C4B1A68D1075CBF01221A60DE
:101CF0001A4B1A68D2075CBF01221A60184B1A6887
:101D0000D0075CBF01221A60164B1A68D1075CBF6E
:101D100001221A60144B1A68D2075CBF01221A60B4
:101D2000124B1A68D0075CBF01221A60104B1A6868
:101D3000D1075CBF01221A600E4B1A68D2075CBF44
:101D400001221A60704700BF3402002030020020D8
:101D50002C02002028020020240200202002002063
:101D60001C02002018020020140200201002002093
:101D70000C02002008020020184B1A68D1075CBF33
:101D800001221A60164B1A68D2075CBF01221A6042
:101D9000144B1A68D0075CBF01221A60124B1A68F4
:101DA000D1075CBF01221A60104B1A68D2075CBFD2
:101DB00001221A600E4B1A68D0075CBF01221A601C
:101DC0000C4B1A68D1075CBF01221A600A4B1A68D3
:101DD000D2075CBF01221A60704700BF5402002086
:101DE000500200204C020020480200204402002043
:101DF000400200203C02002038020020F8B51446C2
:101E00001D4606460F4600F031F810B92046294617
:101E1000F8BD2046294600F029F838B122462B4665
:101E20003046394600F0E4FC0028EFD03046394611
:101E3000F8BD00BFF8B514461D4606460F4600F033
:101E400015F810B920462946F8BD2046294600F06D
:101E50000DF838B122462B463046394600F0AAFC30
:101E60000028EFD030463946F8BD00BF31F00043BE
:101E700010B407D0104AA1F58014944206D804206B
:101E800010BC704710B9022010BC704701F1FF412F
:101E9000094A01F5E0019142F1D9B3F5801F01D261
:101EA0000320EDE7054A934201D00020E8E7B0FAAD
:101EB00080F04009E4E700BFFFFFDF7F0000F07F14
:101EC000F8B5C1F30A56A6F2FF35132D0A460B46A4
:101ED0000446864611DC002D2EDB0F461F492941A2
:101EE0000A4225D04FF400232B413B4423EA01034F
:101EF0000026194634462046F8BD332D05DDB5F5DC
:101F0000806F1FD011462046F8BDA6F213464FF051
:101F1000FF3121FA06F63042F4D00122C5F1330533
:101F200002FA05F52D1828BF9B1825EA0606E0E7FA
:101F30000028D7D11146E6E7013501F0004307D06C
:101F40000026D6E702460B4600F010F80446D2E71A
:101F500043F07F5343F440130026CAE7FFFF0F000E
:101F600081F0004102E000BF83F0004330B54FEA4A
:101F700041044FEA430594EA050F08BF90EA020FB7
:101F80001FBF54EA000C55EA020C7FEA645C7FEA4A
:101F9000655C00F0E2804FEA5454D4EB5555B8BF6D
:101FA0006D420CDD2C4480EA020281EA030382EADE
:101FB000000083EA010180EA020281EA0303362D70
:101FC00088BF30BD11F0004F4FEA01314FF4801C43
:101FD0004CEA113102D0404261EB410113F0004F55
:101FE0004FEA03334CEA133302D0524263EB43030C
:101FF00094EA050F00F0A780A4F10104D5F1200EAA
:102000000DDB02FA0EFC22FA05F2801841F1000104
:1020100003FA0EF2801843FA05F359410EE0A5F1D8
:1020200020050EF1200E012A03FA0EFC28BF4CF009
:10203000020C43FA05F3C01851EBE37101F00045BF
:1020400007D54FF0000EDCF1000C7EEB00006EEBCC
:102050000101B1F5801F1BD3B1F5001F0CD3490856
:102060005FEA30004FEA3C0C04F101044FEA4452AD
:1020700012F5800F80F09A80BCF1004F08BF5FEA34
:10208000500C50F1000041EB045141EA050130BD14
:102090005FEA4C0C404141EB010111F4801FA4F1B7
:1020A0000104E9D191F0000F04BF01460020B1FA0C
:1020B00081F308BF2033A3F10B03B3F120020CDA44
:1020C0000C3208DD02F1140CC2F10C0201FA0CF022
:1020D00021FA02F10CE002F11402D8BFC2F1200C87
:1020E00001FA02F120FA0CFCDCBF41EA0C0190403D
:1020F000E41AA2BF01EB0451294330BD6FEA040486
:102100001F3C1CDA0C340EDC04F11404C4F1200270
:1021100020FA04F001FA02F340EA030021FA04F382
:1021200045EA030130BDC4F10C04C4F1200220FAD9
:1021300002F001FA04F340EA0300294630BD21FA17
:1021400004F0294630BD94F0000F83F4801306BFDD
:1021500081F480110134013D4EE77FEA645C18BFD1
:102160007FEA655C29D094EA050F08BF90EA020F68
:1021700005D054EA000C04BF1946104630BD91EA60
:10218000030F1EBF0021002030BD5FEA545C05D163
:102190004000494128BF41F0004130BD14F58004A2
:1021A0003CBF01F5801130BD01F0004545F0FE4116
:1021B00041F470014FF0000030BD7FEA645C1ABF4B
:1021C000194610467FEA655C1CBF0B46024650EA82
:1021D000013406BF52EA033591EA030F41F40021AE
:1021E00030BD00BF90F0000F04BF0021704730B534
:1021F0004FF4806404F132044FF000054FF0000109
:1022000050E700BF90F0000F04BF0021704730B5C9
:102210004FF4806404F1320410F0004548BF40429E
:102220004FF000013EE700BF42004FEAE2014FEAF3
:1022300031014FEA02701FBF12F07F4393F07F4FCE
:1022400081F06051704792F0000F14BF93F07F4F00
:10225000704730B54FF4607401F0004521F0004143
:1022600020E700BF50EA010208BF704730B54FF0C9
:1022700000050AE050EA010208BF704730B511F0CE
:10228000004502D5404261EB41014FF4806404F106
:1022900032045FEA915C3FF4DCAE4FF003025FEA88
:1022A000DC0C18BF03325FEADC0C18BF033202EB10
:1022B000DC02C2F1200300FA03FC20FA02F001FA6A
:1022C00003FE40EA0E0021FA02F11444C1E600BF09
:1022D00070B54FF0FF0C4CF4E06C1CEA11541DBFBC
:1022E0001CEA135594EA0C0F95EA0C0F00F0DEF887
:1022F0002C4481EA030621EA4C5123EA4C5350EA6C
:10230000013518BF52EA033541F4801143F48013BC
:1023100038D0A0FB02CE4FF00005E1FB02E506F04D
:102320000042E0FB03E54FF00006E1FB03569CF0A2
:10233000000F18BF4EF0010EA4F1FF04B6F5007FA8
:1023400064F5407404D25FEA4E0E6D4146EB06061A
:1023500042EAC62141EA55514FEAC52040EA5E50A3
:102360004FEACE2EB4F1FD0C88BFBCF5E06F1ED84D
:10237000BEF1004F08BF5FEA500E50F1000041EB84
:10238000045170BD06F0004646EA010140EA020031
:1023900081EA0301B4EB5C04C2BFD4EB0C0541EA53
:1023A000045170BD41F480114FF0000E013C00F368
:1023B000AB8014F1360FDEBF002001F0004170BD8C
:1023C000C4F10004203C35DA0C341BDC04F11404A5
:1023D000C4F1200500FA05F320FA04F001FA05F231
:1023E00040EA020001F0004221F0004110EBD370FE
:1023F00021FA04F642EB06015EEA430E08BF20EA2A
:10240000D37070BDC4F10C04C4F1200500FA04F3CC
:1024100020FA05F001FA04F240EA020001F000415E
:1024200010EBD37041F100015EEA430E08BF20EAD1
:10243000D37070BDC4F1200500FA05F24EEA020E19
:1024400020FA04F301FA05F243EA020321FA04F048
:1024500001F0004121FA04F220EA020000EBD370FF
:102460005EEA430E08BF20EAD37070BD94F0000FFF
:102470000FD101F00046400041EB010111F4801F33
:1024800008BF013CF7D041EA060195F0000F18BFE4
:10249000704703F00046520043EB030313F4801F20
:1024A00008BF013DF7D043EA0603704794EA0C0FDA
:1024B0000CEA135518BF95EA0C0F0CD050EA4106F0
:1024C00018BF52EA4306D1D181EA030101F000416D
:1024D0004FF0000070BD50EA410606BF1046194695
:1024E00052EA430619D094EA0C0F02D150EA0136A1
:1024F00013D195EA0C0F05D152EA03361CBF1046E2
:1025000019460AD181EA030101F0004141F0FE4180
:1025100041F470014FF0000070BD41F0FE4141F404
:10252000780170BD70B54FF0FF0C4CF4E06C1CEA04
:1025300011541DBF1CEA135594EA0C0F95EA0C0FB9
:1025400000F0A7F8A4EB050481EA030E52EA033574
:102550004FEA013100F088804FEA03334FF0805595
:1025600045EA131343EA12634FEA022245EA1115C2
:1025700045EA10654FEA00260EF000419D4208BF73
:10258000964244F1FD0404F5407402D25B084FEA20
:102590003202B61A65EB03055B084FEA32024FF4CC
:1025A00080104FF4002CB6EB020E75EB030E22BF29
:1025B000B61A754640EA0C005B084FEA3202B6EBE9
:1025C000020E75EB030E22BFB61A754640EA5C0098
:1025D0005B084FEA3202B6EB020E75EB030E22BF28
:1025E000B61A754640EA9C005B084FEA3202B6EB29
:1025F000020E75EB030E22BFB61A754640EADC00E8
:1026000055EA060E18D04FEA051545EA16754FEA49
:1026100006164FEAC30343EA52734FEAC2025FEA67
:102620001C1CC0D111F4801F0BD141EA00014FF0F6
:1026300000004FF0004CB6E711F4801F04BF0143C7
:102640000020B4F1FD0C88BFBCF5E06F3FF6AFAEE3
:10265000B5EB030C04BFB6EB020C5FEA500C50F173
:10266000000041EB045170BD0EF0004E4EEA1131F6
:1026700014EB5C04C2BFD4EB0C0541EA045170BDFD
:1026800041F480114FF0000E013C90E645EA060E41
:102690008DE60CEA135594EA0C0F08BF95EA0C0F6F
:1026A0003FF43BAF94EA0C0F0AD150EA01347FF4B7
:1026B00034AF95EA0C0F7FF425AF104619462CE78E
:1026C00095EA0C0F06D152EA03353FF4FDAE1046F1
:1026D000194622E750EA410618BF52EA43067FF442
:1026E000C5AE50EA41047FF40DAF52EA43057FF4D2
:1026F000EBAE12E74FF0FF3C06E000BF4FF0010CDD
:1027000002E000BF4FF0010C4DF804CD4FEA410C40
:102710007FEA6C5C4FEA430C18BF7FEA6C5C1BD00D
:1027200001B050EA410C0CBF52EA430C91EA030F8E
:1027300002BF90EA020F0020704710F1000F91EAEB
:10274000030F58BF994208BF90422CBFD8176FEAB9
:10275000E37040F0010070474FEA410C7FEA6C5C87
:1027600002D150EA013C07D14FEA430C7FEA6C5C8E
:10277000D6D152EA033CD3D05DF8040B704700BFBA
:102780008446104662468C461946634600E000BF08
:1027900001B5FFF7B7FF002848BF10F1000F01BDDA
:1027A0004DF808EDFFF7F4FF0CBF012000205DF8A5
:1027B00008FB00BF4DF808EDFFF7EAFF34BF01202A
:1027C00000205DF808FB00BF4DF808EDFFF7E0FFC3
:1027D00094BF012000205DF808FB00BF4DF808ED14
:1027E000FFF7CEFF94BF012000205DF808FB00BF7B
:1027F0004DF808EDFFF7C4FF34BF012000205DF85D
:1028000008FB00BF4FEA410C7FEA6C5C02D150EA42
:10281000013C0AD14FEA430C7FEA6C5C02D152EAD8
:10282000033C02D14FF0000070474FF001007047A9
:102830004FEA410212F5001215D211D56FF47873E8
:10284000B3EB625212D94FEAC12343F0004343EA8B
:10285000505311F0004F23FA02F018BF4042704766
:102860004FF00000704750EA013005D111F00040F0
:1028700008BF6FF0004070474FF00000704700BF86
:102880004A0011D212F5001211D20DD56FF47873EF
:10289000B3EB62520ED44FEAC12343F0004343EA44
:1028A000505323FA02F070474FF00000704750EA8F
:1028B000013002D14FF0FF3070474FF000007047F9
:1028C00080F0004002E000BF81F0004142001FBFE5
:1028D0005FEA410392EA030F7FEA226C7FEA236CEE
:1028E0006AD04FEA1262D2EB1363C1BFD2184140E3
:1028F00048404140B8BF5B42192B88BF704710F079
:10290000004F40F4000020F07F4018BF404211F01B
:10291000004F41F4000121F07F4118BF494292EA83
:10292000030F3FD0A2F1010241FA03FC10EB0C00AF
:10293000C3F1200301FA03F100F0004302D549423C
:1029400060EB4000B0F5000F13D3B0F1807F06D3E9
:1029500040084FEA310102F10102FE2A51D2B1F1E1
:10296000004F40EBC25008BF20F0010040EA0300D6
:102970007047490040EB000010F4000FA2F1010283
:10298000EDD1B0FA80FCACF1080CB2EB0C0200FA0D
:102990000CF0AABF00EBC25052421843BCBFD0405B
:1029A0001843704792F0000F81F4000106BF80F4D5
:1029B00000000132013BB5E74FEA41037FEA226C98
:1029C00018BF7FEA236C21D092EA030F04D092F063
:1029D000000F08BF0846704790EA010F1CBF002097
:1029E000704712F07F4F04D1400028BF40F00040F4
:1029F000704712F100723CBF00F50000704700F014
:102A0000004343F0FE4040F4000070477FEA22623A
:102A100016BF08467FEA23630146420206BF5FEA0B
:102A2000412390EA010F40F4800070474FF000030B
:102A300004E000BF10F0004348BF40425FEA000CD2
:102A400008BF704743F0964301464FF000001CE07A
:102A500050EA010208BF70474FF000030AE000BFD0
:102A600050EA010208BF704711F0004302D540420E
:102A700061EB41015FEA010C02BF84460146002080
:102A800043F0B64308BFA3F18053A3F50003BCFA9B
:102A90008CF2083AA3EBC25310DB01FA02FC634448
:102AA00000FA02FCC2F12002BCF1004F20FA02F24F
:102AB00043EB020008BF20F00100704702F1200242
:102AC00001FA02FCC2F1200250EA4C0021FA02F2A3
:102AD00043EB020008BF20EADC7070474FF0FF0CA8
:102AE0001CEAD0521EBF1CEAD15392EA0C0F93EAA3
:102AF0000C0F6FD01A4480EA010C400218BF5FEA45
:102B000041211ED04FF0006343EA501043EA5111B7
:102B1000A0FB01310CF00040B1F5000F3EBF4900B1
:102B200041EAD3715B0040EA010062F17F02FD2AB5
:102B30001DD8B3F1004F40EBC25008BF20F0010098
:102B4000704790F0000F0CF0004C08BF49024CEAAF
:102B5000502040EA51207F3AC2BFD2F1FF0340EA41
:102B6000C250704740F400004FF00003013A5DDCB2
:102B700012F1190FDCBF00F000407047C2F10002F3
:102B8000410021FA02F1C2F1200200FA02FC5FEAE0
:102B9000310040F1000053EA4C0308BF20EADC702A
:102BA000704792F0000F00F0004C02BF400010F49C
:102BB000000F013AF9D040EA0C0093F0000F01F049
:102BC000004C02BF490011F4000F013BF9D041EA6B
:102BD0000C018FE70CEAD15392EA0C0F18BF93EA6D
:102BE0000C0F0AD030F0004C18BF31F0004CD8D197
:102BF00080EA010000F00040704790F0000F17BF1E
:102C000090F0004F084691F0000F91F0004F14D063
:102C100092EA0C0F01D142020FD193EA0C0F03D1BB
:102C20004B0218BF084608D180EA010000F00040BE
:102C300040F0FE4040F40000704740F0FE4040F499
:102C4000400070474FF0FF0C1CEAD0521EBF1CEA38
:102C5000D15392EA0C0F93EA0C0F69D0A2EB030256
:102C600080EA010C49024FEA402037D04FF08053F0
:102C700043EA111143EA10130CF000408B4238BFB5
:102C80005B0042F17D024FF4000C8B4224BF5B1AC3
:102C900040EA0C00B3EB510F24BFA3EB510340EA11
:102CA0005C00B3EB910F24BFA3EB910340EA9C00BF
:102CB000B3EBD10F24BFA3EBD10340EADC001B012F
:102CC00018BF5FEA1C1CE0D1FD2A3FF650AF8B42D3
:102CD00040EBC25008BF20F0010070470CF0004CE0
:102CE0004CEA50207F32C2BFD2F1FF0340EAC2500B
:102CF000704740F400004FF00003013A37E792F0CC
:102D0000000F00F0004C02BF400010F4000F013A29
:102D1000F9D040EA0C0093F0000F01F0004C02BF24
:102D2000490011F4000F013BF9D041EA0C0195E78D
:102D30000CEAD15392EA0C0F08D142027FF47DAF26
:102D400093EA0C0F7FF470AF084676E793EA0C0F16
:102D500004D14B023FF44CAF08466EE730F0004C14
:102D600018BF31F0004CCAD130F000427FF45CAFA4
:102D700031F000437FF43CAF5FE700BF10B5054C76
:102D800013462CB10A4601460220AFF3008010BD65
:102D9000204610BD0000000010B5431E0A449142B9
:102DA00004D011F8014B03F8014FF8E710BD0346BA
:102DB0000244934202D003F8011BFAE77047000077
:102DC00038B5124B05461C68A36BD3B91820FEF723
:102DD0008BF843F20E33A06303804AF6CD33438071
:102DE00041F2342383804EF26D63C3804DF6EC6371
:102DF0000381052343810B23838101220023C0E942
:102E00000423A36B00221D615A6138BD68000020B5
:102E1000034613F8012B002AFBD1181A013870471A
:102E200021000A0861000A088D000A0891000A08BA
:102E3000000000000000000000000000BB000A08C5
:102E4000BD000A080000000000000000E3010A08BD
:102E500027030A080D030A0833020A08E1010A08D9
:102E6000DB010A0887020A080F020A0891020A0811
:102E7000E5010A08202020202020202020202020DA
:102E8000202067002020202020202020202020201B
:102E900020206F7A00202D2D2D2D2D2D2D2D2D2D27
:102EA0002D2D2D25342E3166670A002D2D2D2D2D2B
:102EB0002D2D2D2D2D2D2D2D2D002025342E31663F
:102EC000672C2025342E3166672C2025342E316660
:102ED000672C2025342E32666F7A2C2025362E332F
:102EE00066730A00000000000000000079090A086B
:102EF0007B090A08350A0A08910F0A080000000039
:102F00004000000014000000540000006E616E00DC
:102F10006F7666002E00696E66006261756400530C
:102F2000657269616C0055534253657269616C3119
:102F3000007479706500706172616D00636D64008A
:102F4000696400686E64007374726D0066696C7405
:102F5000006C766C0061646448616E646C6572003C
:102F600072656D6F766548616E646C657200656E42
:102F7000756D48616E646C657273004A534F4E53B1
:102F8000747265616D4C6F6748616E646C65720048
:102F900061707000253031307520005D200025649F
:102FA000002C200028293A2000205B00636F646514
:102FB000203D200025690064657461696C73203DC3
:102FC00020000D0A006C6E00666E00636F64650081
:102FD00064657461696C006E6F6E65007472616324
:102FE0006500696E666F007761726E006572726F60
:102FF000720070616E696300616C6C005A00252B71
:103000003033643A253032750025592D256D2D2534
:10301000645425483A254D3A2553257A0061736357
:1030200074696D65000000000000000000000000F1
:10303000ED130A08DD130A08DF130A080000000078
:1030400000000000A9140A08F9140A0807150A0864
:10305000910F0A08E5140A08AB140A08C1140A08FB
:10306000F3140A08D7140A08A5140A08000000007F
:103070000000000011160A0861160A086F160A08F7
:10308000910F0A0825160A0847160A0833160A0877
:103090005B160A0813160A0817160A080000000033
:1030A0000000000049170A0893170A086B170A085E
:1030B0004B170A0873170A087B170A0883170A08B0
:1030C0008B170A08000000000000000085180A089D
:1030D0007B180A0871180A08EF170A0833120A0841
:1030E00065180A0859180A0851180A0847180A08E2
:1030F0003D180A08F9170A08000000000000000047
:10310000A5180A08AF180A08B9180A08C3180A0847
:10311000CD180A08D9180A08E5180A08F1180A088B
:10312000F9180A0803190A080D190A080000000016
:10313000000000000000000000000000000000008F
:10314000000000000000000000000000000000007F
:10315000000000000000000000000000000000006F
:10316000000000000000000000000000000000005F
:10317000000000000000000000000000000000004F
:10318000000000000000000000000000000000003F
:1031900043000000D7010A08F9040A084D090A088B
:1031A000870B0A085D0F0A0841120A0851120A0823
:1031B00089120A0891180A085D190A08791A0A087A
:1031C0006D1B0A08F11B0A08B51C0A08791D0A08BC
:0431D00000000000FB
:1031D400010000001D300A080000000030310A0818
:1031E40050310A0870310A08000000000000000095
:1031F400000000000000000090310A0800000000F8
:1032040000000000000000000000000000000000BA
:1032140000000000000000000000000000000000AA
:10322400000000000000000000000000000000009A
:0C32340000000000000000000800002066
:10324000FFFFFFFF00000102030405060708090A4B
:103250000B0C0D0E0F101112131415161718191A46
:083260001B1C1D1E1F2028008D
:04326800785634124E
:04000005080A0020C5
:00000001FF
